:100000000C9461000C9473000C9473000C947300B6
:100010000C9473000C9473000C9473000C94730094
:100020000C9473000C9473000C9473000C94730084
:100030000C9473000C9473000C9473000C94730074
:100040000C9481010C9473000C9473000C94730055
:100050000C9473000C9473000C9473000C94730054
:100060000C9473000C94730000000000240027001F
:100070002A0000000000250028002B0000000000DE
:1000800023002600290004040404040404040202DA
:100090000202020203030303030301020408102007
:1000A0004080010204081020010204081020000012
:1000B0000008000201000003040700000000000027
:1000C000000011241FBECFEFD8E0DEBFCDBF21E07E
:1000D000A0E0B1E001C01D92AB30B207E1F70E9491
:1000E000CB010C941C030C940000833081F028F4A5
:1000F000813099F08230A9F008958730A9F08830D6
:10010000C9F08430B1F4809180008F7D03C080916C
:1001100080008F7780938000089584B58F7784BDA9
:10012000089584B58F7DFBCF8091B0008F77809349
:10013000B00008958091B0008F7DF9CFCF93DF9309
:10014000282F30E0F901E255FF4F8491F901E6567E
:10015000FF4FD491F901EA57FF4FC491CC23A1F08E
:1001600081110E947500EC2FF0E0EE0FFF1FE458A4
:10017000FF4FA591B491EC91ED2381E090E009F45B
:1001800080E0DF91CF91089580E090E0FACF1F9357
:10019000CF93DF93282F30E0F901E255FF4F849190
:1001A000F901E656FF4FD491F901EA57FF4FC49188
:1001B000CC23A9F0162F81110E947500EC2FF0E0DE
:1001C000EE0FFF1FEE58FF4FA591B4918FB7F89433
:1001D000EC91111108C0D095DE23DC938FBFDF9125
:1001E000CF911F910895DE2BF8CFCF93DF9390E04E
:1001F000FC01E656FF4F24918A579F4FFC018491E2
:100200008823D1F090E0880F991FFC01E859FF4F37
:10021000A591B491FC01EE58FF4FC591D4916111A5
:100220000EC09FB7F8948C91E22FE0958E238C93AB
:100230002881E223E8839FBFDF91CF9108958FB794
:10024000F894EC91E22BEC938FBFF6CF3FB7F89484
:100250008091070190910801A0910901B0910A01D4
:1002600026B5A89B05C02F3F19F00196A11DB11D11
:100270003FBFBA2FA92F982F8827BC01CD01620F4D
:10028000711D811D911D42E0660F771F881F991F08
:100290004A95D1F708958F929F92AF92BF92CF92D5
:1002A000DF92EF92FF920E9426014B015C0188EBE6
:1002B000C82E8BE0D82EE12CF12C0E942601681963
:1002C00079098A099B09683E734081059105A8F365
:1002D00021E0C21AD108E108F10888EE880E83E017
:1002E000981EA11CB11CC114D104E104F10429F72A
:1002F000FF90EF90DF90CF90BF90AF909F908F9046
:1003000008951F920F920FB60F9211242F933F93CF
:100310008F939F93AF93BF938091030190910401BA
:10032000A0910501B09106013091020123E0230F55
:100330002D3758F50196A11DB11D20930201809320
:10034000030190930401A0930501B09306018091ED
:10035000070190910801A0910901B0910A0101964D
:10036000A11DB11D8093070190930801A09309017D
:10037000B0930A01BF91AF919F918F913F912F91BF
:100380000F900FBE0F901F90189526E8230F02962E
:10039000A11DB11DD2CF789484B5826084BD84B58F
:1003A000816084BD85B5826085BD85B5816085BD70
:1003B00080916E00816080936E0010928100809128
:1003C00081008260809381008091810081608093B0
:1003D0008100809180008160809380008091B100D5
:1003E00084608093B1008091B00081608093B00000
:1003F00080917A00846080937A0080917A00826094
:1004000080937A0080917A00816080937A00809155
:100410007A00806880937A001092C10060E08DE0DD
:100420000E94F50060E08CE00E94F50060E08AE048
:100430000E94F50060E089E00E94F50060E088E03D
:100440000E94F50060E087E00E94F50060E086E031
:100450000E94F50060E085E00E94F50060E084E025
:100460000E94F50061E082E00E94F50061E081E019
:100470000E94F50061E080E00E94F50033E0232E49
:10048000312C44E0442E512C55E0652E712C66E051
:10049000862E912C8DE00E949E00892B69F58CE0C0
:1004A0000E949E00892B41F58BE00E949E00892BC3
:1004B00019F58AE00E949E00892BF1F489E00E94E0
:1004C0009E00892BC9F488E00E949E00892BA1F42C
:1004D00087E00E949E00892B79F486E00E949E00AE
:1004E000892B51F485E00E949E00892B29F484E039
:1004F0000E949E00892B71F204E010E0D0E0C0E081
:1005000087E0E82EF12C98E0C92ED12C29E0A22E0C
:10051000B12C8DE00E949E00892B21F010920101E8
:10052000109200018CE00E949E00892B31F081E046
:1005300090E090930101809300018BE00E949E0067
:10054000892B31F082E090E09093010180930001CB
:100550008AE00E949E00892B21F0309201012092B6
:10056000000189E00E949E00892B21F05092010138
:100570004092000188E00E949E00892B21F0709239
:1005800001016092000187E00E949E00892B21F00A
:10059000909201018092000186E00E949E00892BCA
:1005A00021F0F0920101E092000185E00E949E009E
:1005B000892B21F0D0920101C092000184E00E94B9
:1005C0009E00892B21F0B0920101A09200012AE047
:1005D0002C9FC0012D9F900D1124C0910001D0913E
:1005E0000101C80FD91F0150110909F092CF61E034
:1005F000C23DD44089F482E00E94C7000E944B01B2
:1006000060E082E00E94C70080E090E0892B09F45E
:1006100041CF0E9400003ECF81E00E94C70061E010
:1006200080E00E94C7000E944B0160E081E00E94D0
:0C063000C70060E080E0E6CFF894FFCF48
:00000001FF
